{
  "contractName": "ProductContract",
  "abi": [
    {
      "inputs": [],
      "name": "productCount",
      "outputs": [
        {
          "internalType": "uint256",
          "name": "",
          "type": "uint256"
        }
      ],
      "stateMutability": "view",
      "type": "function"
    },
    {
      "inputs": [
        {
          "internalType": "uint256",
          "name": "",
          "type": "uint256"
        }
      ],
      "name": "productItems",
      "outputs": [
        {
          "internalType": "uint256",
          "name": "productId",
          "type": "uint256"
        },
        {
          "internalType": "bytes32",
          "name": "productSN",
          "type": "bytes32"
        },
        {
          "internalType": "bytes32",
          "name": "productName",
          "type": "bytes32"
        },
        {
          "internalType": "bytes32",
          "name": "productBrand",
          "type": "bytes32"
        },
        {
          "internalType": "uint256",
          "name": "productPrice",
          "type": "uint256"
        },
        {
          "internalType": "bytes32",
          "name": "productStatus",
          "type": "bytes32"
        }
      ],
      "stateMutability": "view",
      "type": "function"
    },
    {
      "inputs": [
        {
          "internalType": "bytes32",
          "name": "",
          "type": "bytes32"
        }
      ],
      "name": "productMap",
      "outputs": [
        {
          "internalType": "uint256",
          "name": "",
          "type": "uint256"
        }
      ],
      "stateMutability": "view",
      "type": "function"
    },
    {
      "inputs": [
        {
          "internalType": "bytes32",
          "name": "",
          "type": "bytes32"
        }
      ],
      "name": "productsForSale",
      "outputs": [
        {
          "internalType": "bytes32",
          "name": "",
          "type": "bytes32"
        }
      ],
      "stateMutability": "view",
      "type": "function"
    },
    {
      "inputs": [
        {
          "internalType": "bytes32",
          "name": "",
          "type": "bytes32"
        }
      ],
      "name": "productsManufactured",
      "outputs": [
        {
          "internalType": "bytes32",
          "name": "",
          "type": "bytes32"
        }
      ],
      "stateMutability": "view",
      "type": "function"
    },
    {
      "inputs": [
        {
          "internalType": "bytes32",
          "name": "",
          "type": "bytes32"
        }
      ],
      "name": "productsSold",
      "outputs": [
        {
          "internalType": "bytes32",
          "name": "",
          "type": "bytes32"
        }
      ],
      "stateMutability": "view",
      "type": "function"
    },
    {
      "inputs": [
        {
          "internalType": "bytes32",
          "name": "",
          "type": "bytes32"
        },
        {
          "internalType": "uint256",
          "name": "",
          "type": "uint256"
        }
      ],
      "name": "productsWithConsumer",
      "outputs": [
        {
          "internalType": "bytes32",
          "name": "",
          "type": "bytes32"
        }
      ],
      "stateMutability": "view",
      "type": "function"
    },
    {
      "inputs": [
        {
          "internalType": "bytes32",
          "name": "",
          "type": "bytes32"
        },
        {
          "internalType": "uint256",
          "name": "",
          "type": "uint256"
        }
      ],
      "name": "productsWithSeller",
      "outputs": [
        {
          "internalType": "bytes32",
          "name": "",
          "type": "bytes32"
        }
      ],
      "stateMutability": "view",
      "type": "function"
    },
    {
      "inputs": [],
      "name": "sellerCount",
      "outputs": [
        {
          "internalType": "uint256",
          "name": "",
          "type": "uint256"
        }
      ],
      "stateMutability": "view",
      "type": "function"
    },
    {
      "inputs": [
        {
          "internalType": "uint256",
          "name": "",
          "type": "uint256"
        }
      ],
      "name": "sellers",
      "outputs": [
        {
          "internalType": "uint256",
          "name": "sellerId",
          "type": "uint256"
        },
        {
          "internalType": "bytes32",
          "name": "sellerName",
          "type": "bytes32"
        },
        {
          "internalType": "bytes32",
          "name": "sellerBrand",
          "type": "bytes32"
        },
        {
          "internalType": "bytes32",
          "name": "sellerCode",
          "type": "bytes32"
        },
        {
          "internalType": "uint256",
          "name": "sellerNum",
          "type": "uint256"
        },
        {
          "internalType": "bytes32",
          "name": "sellerManager",
          "type": "bytes32"
        },
        {
          "internalType": "bytes32",
          "name": "sellerAddress",
          "type": "bytes32"
        }
      ],
      "stateMutability": "view",
      "type": "function"
    },
    {
      "inputs": [
        {
          "internalType": "bytes32",
          "name": "",
          "type": "bytes32"
        },
        {
          "internalType": "uint256",
          "name": "",
          "type": "uint256"
        }
      ],
      "name": "sellersWithManufacturer",
      "outputs": [
        {
          "internalType": "bytes32",
          "name": "",
          "type": "bytes32"
        }
      ],
      "stateMutability": "view",
      "type": "function"
    },
    {
      "inputs": [
        {
          "internalType": "bytes32",
          "name": "_manufacturerId",
          "type": "bytes32"
        },
        {
          "internalType": "bytes32",
          "name": "_sellerName",
          "type": "bytes32"
        },
        {
          "internalType": "bytes32",
          "name": "_sellerBrand",
          "type": "bytes32"
        },
        {
          "internalType": "bytes32",
          "name": "_sellerCode",
          "type": "bytes32"
        },
        {
          "internalType": "uint256",
          "name": "_sellerNum",
          "type": "uint256"
        },
        {
          "internalType": "bytes32",
          "name": "_sellerManager",
          "type": "bytes32"
        },
        {
          "internalType": "bytes32",
          "name": "_sellerAddress",
          "type": "bytes32"
        }
      ],
      "name": "addSeller",
      "outputs": [],
      "stateMutability": "nonpayable",
      "type": "function"
    },
    {
      "inputs": [],
      "name": "viewSellers",
      "outputs": [
        {
          "internalType": "uint256[]",
          "name": "",
          "type": "uint256[]"
        },
        {
          "internalType": "bytes32[]",
          "name": "",
          "type": "bytes32[]"
        },
        {
          "internalType": "bytes32[]",
          "name": "",
          "type": "bytes32[]"
        },
        {
          "internalType": "bytes32[]",
          "name": "",
          "type": "bytes32[]"
        },
        {
          "internalType": "uint256[]",
          "name": "",
          "type": "uint256[]"
        },
        {
          "internalType": "bytes32[]",
          "name": "",
          "type": "bytes32[]"
        },
        {
          "internalType": "bytes32[]",
          "name": "",
          "type": "bytes32[]"
        }
      ],
      "stateMutability": "view",
      "type": "function"
    },
    {
      "inputs": [
        {
          "internalType": "bytes32",
          "name": "_manufacturerID",
          "type": "bytes32"
        },
        {
          "internalType": "bytes32",
          "name": "_productName",
          "type": "bytes32"
        },
        {
          "internalType": "bytes32",
          "name": "_productSN",
          "type": "bytes32"
        },
        {
          "internalType": "bytes32",
          "name": "_productBrand",
          "type": "bytes32"
        },
        {
          "internalType": "uint256",
          "name": "_productPrice",
          "type": "uint256"
        }
      ],
      "name": "addProduct",
      "outputs": [],
      "stateMutability": "nonpayable",
      "type": "function"
    },
    {
      "inputs": [],
      "name": "viewProductItems",
      "outputs": [
        {
          "internalType": "uint256[]",
          "name": "",
          "type": "uint256[]"
        },
        {
          "internalType": "bytes32[]",
          "name": "",
          "type": "bytes32[]"
        },
        {
          "internalType": "bytes32[]",
          "name": "",
          "type": "bytes32[]"
        },
        {
          "internalType": "bytes32[]",
          "name": "",
          "type": "bytes32[]"
        },
        {
          "internalType": "uint256[]",
          "name": "",
          "type": "uint256[]"
        },
        {
          "internalType": "bytes32[]",
          "name": "",
          "type": "bytes32[]"
        }
      ],
      "stateMutability": "view",
      "type": "function"
    }
  ],
  "bytecode": "0x608060405260008055600060015534801561001957600080fd5b506115dd806100296000396000f3fe608060405234801561001057600080fd5b50600436106100f55760003560e01c80639cd777dd11610097578063cd4f6a2e11610066578063cd4f6a2e146102bc578063cee26ed5146102ec578063e0f6ef8714610322578063e262113f14610340576100f5565b80639cd777dd146101f7578063a090f47c14610227578063c20805b414610257578063caaf275114610287576100f5565b80631b3658c8116100d35780631b3658c8146101715780634b9930011461018d57806359fa9b1f146101bd5780639316bff0146101db576100f5565b8063032f95e6146100fa578063100b6ba21461011e5780631836bd4b1461014e575b600080fd5b610102610370565b604051610115979695949392919061103a565b60405180910390f35b6101386004803603810190610133919061110b565b6107b4565b6040516101459190611147565b60405180910390f35b6101566107cc565b60405161016896959493929190611162565b60405180910390f35b61018b60048036038101906101869190611219565b610b7f565b005b6101a760048036038101906101a291906112bb565b610c6b565b6040516101b4919061130a565b60405180910390f35b6101c5610c9c565b6040516101d29190611147565b60405180910390f35b6101f560048036038101906101f09190611325565b610ca2565b005b610211600480360381019061020c91906112bb565b610d7c565b60405161021e919061130a565b60405180910390f35b610241600480360381019061023c919061110b565b610dad565b60405161024e919061130a565b60405180910390f35b610271600480360381019061026c919061110b565b610dc5565b60405161027e919061130a565b60405180910390f35b6102a1600480360381019061029c91906113a0565b610ddd565b6040516102b3969594939291906113cd565b60405180910390f35b6102d660048036038101906102d1919061110b565b610e19565b6040516102e3919061130a565b60405180910390f35b610306600480360381019061030191906113a0565b610e31565b604051610319979695949392919061142e565b60405180910390f35b61032a610e73565b6040516103379190611147565b60405180910390f35b61035a600480360381019061035591906112bb565b610e79565b604051610367919061130a565b60405180910390f35b60608060608060608060606000805467ffffffffffffffff8111156103985761039761149d565b5b6040519080825280602002602001820160405280156103c65781602001602082028036833780820191505090505b5090506000805467ffffffffffffffff8111156103e6576103e561149d565b5b6040519080825280602002602001820160405280156104145781602001602082028036833780820191505090505b5090506000805467ffffffffffffffff8111156104345761043361149d565b5b6040519080825280602002602001820160405280156104625781602001602082028036833780820191505090505b5090506000805467ffffffffffffffff8111156104825761048161149d565b5b6040519080825280602002602001820160405280156104b05781602001602082028036833780820191505090505b5090506000805467ffffffffffffffff8111156104d0576104cf61149d565b5b6040519080825280602002602001820160405280156104fe5781602001602082028036833780820191505090505b5090506000805467ffffffffffffffff81111561051e5761051d61149d565b5b60405190808252806020026020018201604052801561054c5781602001602082028036833780820191505090505b5090506000805467ffffffffffffffff81111561056c5761056b61149d565b5b60405190808252806020026020018201604052801561059a5781602001602082028036833780820191505090505b5090506000600190505b600054811161078e576002600082815260200190815260200160002060000154886001836105d291906114fb565b815181106105e3576105e261152f565b5b60200260200101818152505060026000828152602001908152602001600020600101548760018361061491906114fb565b815181106106255761062461152f565b5b60200260200101818152505060026000828152602001908152602001600020600201548660018361065691906114fb565b815181106106675761066661152f565b5b60200260200101818152505060026000828152602001908152602001600020600301548560018361069891906114fb565b815181106106a9576106a861152f565b5b6020026020010181815250506002600082815260200190815260200160002060040154846001836106da91906114fb565b815181106106eb576106ea61152f565b5b60200260200101818152505060026000828152602001908152602001600020600501548360018361071c91906114fb565b8151811061072d5761072c61152f565b5b60200260200101818152505060026000828152602001908152602001600020600601548260018361075e91906114fb565b8151811061076f5761076e61152f565b5b60200260200101818152505080806107869061155e565b9150506105a4565b50868686868686869d509d509d509d509d509d509d505050505050505090919293949596565b60046020528060005260406000206000915090505481565b606080606080606080600060015467ffffffffffffffff8111156107f3576107f261149d565b5b6040519080825280602002602001820160405280156108215781602001602082028036833780820191505090505b509050600060015467ffffffffffffffff8111156108425761084161149d565b5b6040519080825280602002602001820160405280156108705781602001602082028036833780820191505090505b509050600060015467ffffffffffffffff8111156108915761089061149d565b5b6040519080825280602002602001820160405280156108bf5781602001602082028036833780820191505090505b509050600060015467ffffffffffffffff8111156108e0576108df61149d565b5b60405190808252806020026020018201604052801561090e5781602001602082028036833780820191505090505b509050600060015467ffffffffffffffff81111561092f5761092e61149d565b5b60405190808252806020026020018201604052801561095d5781602001602082028036833780820191505090505b509050600060015467ffffffffffffffff81111561097e5761097d61149d565b5b6040519080825280602002602001820160405280156109ac5781602001602082028036833780820191505090505b5090506000600190505b6001548111610b5e576003600082815260200190815260200160002060000154876001836109e491906114fb565b815181106109f5576109f461152f565b5b602002602001018181525050600360008281526020019081526020016000206001015486600183610a2691906114fb565b81518110610a3757610a3661152f565b5b602002602001018181525050600360008281526020019081526020016000206002015485600183610a6891906114fb565b81518110610a7957610a7861152f565b5b602002602001018181525050600360008281526020019081526020016000206003015484600183610aaa91906114fb565b81518110610abb57610aba61152f565b5b602002602001018181525050600360008281526020019081526020016000206004015483600183610aec91906114fb565b81518110610afd57610afc61152f565b5b602002602001018181525050600360008281526020019081526020016000206005015482600183610b2e91906114fb565b81518110610b3f57610b3e61152f565b5b6020026020010181815250508080610b569061155e565b9150506109b6565b508585858585859b509b509b509b509b509b50505050505050909192939495565b600080815480929190610b919061155e565b91905055506040518060e001604052806000548152602001878152602001868152602001858152602001848152602001838152602001828152506002600080548152602001908152602001600020600082015181600001556020820151816001015560408201518160020155606082015181600301556080820151816004015560a0820151816005015560c08201518160060155905050600a600088815260200190815260200160002084908060018154018082558091505060019003906000526020600020016000909190919091505550505050505050565b60086020528160005260406000208181548110610c8757600080fd5b90600052602060002001600091509150505481565b60005481565b60016000815480929190610cb59061155e565b91905055506040518060c0016040528060015481526020018481526020018581526020018381526020018281526020017f417661696c61626c650000000000000000000000000000000000000000000000815250600360006001548152602001908152602001600020600082015181600001556020820151816001015560408201518160020155606082015181600301556080820151816004015560a082015181600501559050508460056000858152602001908152602001600020819055505050505050565b60096020528160005260406000208181548110610d9857600080fd5b90600052602060002001600091509150505481565b60066020528060005260406000206000915090505481565b60056020528060005260406000206000915090505481565b60036020528060005260406000206000915090508060000154908060010154908060020154908060030154908060040154908060050154905086565b60076020528060005260406000206000915090505481565b60026020528060005260406000206000915090508060000154908060010154908060020154908060030154908060040154908060050154908060060154905087565b60015481565b600a6020528160005260406000208181548110610e9557600080fd5b90600052602060002001600091509150505481565b600081519050919050565b600082825260208201905092915050565b6000819050602082019050919050565b6000819050919050565b610ee981610ed6565b82525050565b6000610efb8383610ee0565b60208301905092915050565b6000602082019050919050565b6000610f1f82610eaa565b610f298185610eb5565b9350610f3483610ec6565b8060005b83811015610f65578151610f4c8882610eef565b9750610f5783610f07565b925050600181019050610f38565b5085935050505092915050565b600081519050919050565b600082825260208201905092915050565b6000819050602082019050919050565b6000819050919050565b610fb181610f9e565b82525050565b6000610fc38383610fa8565b60208301905092915050565b6000602082019050919050565b6000610fe782610f72565b610ff18185610f7d565b9350610ffc83610f8e565b8060005b8381101561102d5781516110148882610fb7565b975061101f83610fcf565b925050600181019050611000565b5085935050505092915050565b600060e0820190508181036000830152611054818a610f14565b905081810360208301526110688189610fdc565b9050818103604083015261107c8188610fdc565b905081810360608301526110908187610fdc565b905081810360808301526110a48186610f14565b905081810360a08301526110b88185610fdc565b905081810360c08301526110cc8184610fdc565b905098975050505050505050565b600080fd5b6110e881610f9e565b81146110f357600080fd5b50565b600081359050611105816110df565b92915050565b600060208284031215611121576111206110da565b5b600061112f848285016110f6565b91505092915050565b61114181610ed6565b82525050565b600060208201905061115c6000830184611138565b92915050565b600060c082019050818103600083015261117c8189610f14565b905081810360208301526111908188610fdc565b905081810360408301526111a48187610fdc565b905081810360608301526111b88186610fdc565b905081810360808301526111cc8185610f14565b905081810360a08301526111e08184610fdc565b9050979650505050505050565b6111f681610ed6565b811461120157600080fd5b50565b600081359050611213816111ed565b92915050565b600080600080600080600060e0888a031215611238576112376110da565b5b60006112468a828b016110f6565b97505060206112578a828b016110f6565b96505060406112688a828b016110f6565b95505060606112798a828b016110f6565b945050608061128a8a828b01611204565b93505060a061129b8a828b016110f6565b92505060c06112ac8a828b016110f6565b91505092959891949750929550565b600080604083850312156112d2576112d16110da565b5b60006112e0858286016110f6565b92505060206112f185828601611204565b9150509250929050565b61130481610f9e565b82525050565b600060208201905061131f60008301846112fb565b92915050565b600080600080600060a08688031215611341576113406110da565b5b600061134f888289016110f6565b9550506020611360888289016110f6565b9450506040611371888289016110f6565b9350506060611382888289016110f6565b925050608061139388828901611204565b9150509295509295909350565b6000602082840312156113b6576113b56110da565b5b60006113c484828501611204565b91505092915050565b600060c0820190506113e26000830189611138565b6113ef60208301886112fb565b6113fc60408301876112fb565b61140960608301866112fb565b6114166080830185611138565b61142360a08301846112fb565b979650505050505050565b600060e082019050611443600083018a611138565b61145060208301896112fb565b61145d60408301886112fb565b61146a60608301876112fb565b6114776080830186611138565b61148460a08301856112fb565b61149160c08301846112fb565b98975050505050505050565b7f4e487b7100000000000000000000000000000000000000000000000000000000600052604160045260246000fd5b7f4e487b7100000000000000000000000000000000000000000000000000000000600052601160045260246000fd5b600061150682610ed6565b915061151183610ed6565b925082821015611524576115236114cc565b5b828203905092915050565b7f4e487b7100000000000000000000000000000000000000000000000000000000600052603260045260246000fd5b600061156982610ed6565b91507fffffffffffffffffffffffffffffffffffffffffffffffffffffffffffffffff82141561159c5761159b6114cc565b5b60018201905091905056fea264697066735822122024faf4d857eeb80ef2b95859d02c6316e3315adf5683c44c46c37debfeeb087464736f6c634300080c0033",
  "immutableReferences": {},
  "source": "// SPDX-License-Identifier: MIT\npragma solidity ^0.8.12;\n\ncontract ProductContract {\n    // Counter variables initialized to zero\n    uint256 public sellerCount = 0;\n    uint256 public productCount = 0;\n\n    // Struct to store seller information\n    struct Seller {\n        uint256 sellerId;\n        bytes32 sellerName;\n        bytes32 sellerBrand;\n        bytes32 sellerCode;\n        uint256 sellerNum;\n        bytes32 sellerManager;\n        bytes32 sellerAddress;\n    }\n\n    // Mapping to store sellers\n    mapping(uint256 => Seller) public sellers;\n\n    // Struct to store product information\n    struct ProductItem {\n        uint256 productId;\n        bytes32 productSN;\n        bytes32 productName;\n        bytes32 productBrand;\n        uint256 productPrice;\n        bytes32 productStatus;\n    }\n\n    // Mapping to store products\n    mapping(uint256 => ProductItem) public productItems;\n    mapping(bytes32 => uint256) public productMap;\n    mapping(bytes32 => bytes32) public productsManufactured;\n    mapping(bytes32 => bytes32) public productsForSale;\n    mapping(bytes32 => bytes32) public productsSold;\n    mapping(bytes32 => bytes32[]) public productsWithSeller;\n    mapping(bytes32 => bytes32[]) public productsWithConsumer;\n    mapping(bytes32 => bytes32[]) public sellersWithManufacturer;\n\n    // Function to add a new seller\n    function addSeller(\n        bytes32 _manufacturerId,\n        bytes32 _sellerName,\n        bytes32 _sellerBrand,\n        bytes32 _sellerCode,\n        uint256 _sellerNum,\n        bytes32 _sellerManager,\n        bytes32 _sellerAddress\n    ) public {\n        // Increment seller count\n        sellerCount++;\n\n        // Add seller to mapping\n        sellers[sellerCount] = Seller(\n            sellerCount,\n            _sellerName,\n            _sellerBrand,\n            _sellerCode,\n            _sellerNum,\n            _sellerManager,\n            _sellerAddress\n        );\n\n        // Link seller to manufacturer\n        sellersWithManufacturer[_manufacturerId].push(_sellerCode);\n    }\n\n    // Function to view sellers\n    function viewSellers()\n        public\n        view\n        returns (\n            uint256[] memory,\n            bytes32[] memory,\n            bytes32[] memory,\n            bytes32[] memory,\n            uint256[] memory,\n            bytes32[] memory,\n            bytes32[] memory\n        )\n    {\n        // Define arrays to store seller data\n        uint256[] memory ids = new uint256[](sellerCount);\n        bytes32[] memory snames = new bytes32[](sellerCount);\n        bytes32[] memory sbrands = new bytes32[](sellerCount);\n        bytes32[] memory scodes = new bytes32[](sellerCount);\n        uint256[] memory snums = new uint256[](sellerCount);\n        bytes32[] memory smanagers = new bytes32[](sellerCount);\n        bytes32[] memory saddress = new bytes32[](sellerCount);\n\n        // Loop through sellers and populate arrays\n        for (uint256 i = 1; i <= sellerCount; i++) {\n            ids[i - 1] = sellers[i].sellerId;\n            snames[i - 1] = sellers[i].sellerName;\n            sbrands[i - 1] = sellers[i].sellerBrand;\n            scodes[i - 1] = sellers[i].sellerCode;\n            snums[i - 1] = sellers[i].sellerNum;\n            smanagers[i - 1] = sellers[i].sellerManager;\n            saddress[i - 1] = sellers[i].sellerAddress;\n        }\n\n        // Return seller data\n        return (ids, snames, sbrands, scodes, snums, smanagers, saddress);\n    }\n\n    // Function to add a new product\n    function addProduct(\n        bytes32 _manufacturerID,\n        bytes32 _productName,\n        bytes32 _productSN,\n        bytes32 _productBrand,\n        uint256 _productPrice\n    ) public {\n        // Increment product count\n        productCount++;\n\n        // Add product to mapping\n        productItems[productCount] = ProductItem(\n            productCount,\n            _productSN,\n            _productName,\n            _productBrand,\n            _productPrice,\n            \"Available\"\n        );\n\n        // Link product to manufacturer\n        productsManufactured[_productSN] = _manufacturerID;\n    }\n\n    // Function to view products\n    function viewProductItems()\n        public\n        view\n        returns (\n            uint256[] memory,\n            bytes32[] memory,\n            bytes32[] memory,\n            bytes32[] memory,\n            uint256[] memory,\n            bytes32[] memory\n        )\n    {\n        // Define arrays to store product data\n        uint256[] memory pids = new uint256[](productCount);\n        bytes32[] memory pSNs = new bytes32[](productCount);\n        bytes32[] memory pnames = new bytes32[](productCount);\n        bytes32[] memory pbrands = new bytes32[](productCount);\n        uint256[] memory pprices = new uint256[](productCount);\n        bytes32[] memory pstatus = new bytes32[](productCount);\n\n        // Loop through products and populate arrays\n        for (uint256 i = 1; i <= productCount; i++) {\n            pids[i - 1] = productItems[i].productId;\n            pSNs[i - 1] = productItems[i].productSN;\n            pnames[i - 1] = productItems[i].productName;\n            pbrands[i - 1] = productItems[i].productBrand;\n            pprices[i - 1] = productItems[i].productPrice;\n            pstatus[i - 1] = productItems[i].productStatus;\n        }\n\n        // Return product data\n        return (pids, pSNs, pnames, pbrands, pprices, pstatus);\n    }\n\n    // Add more functions and comments for other functionalities as needed...\n}\n",
  "sourcePath": "C:\\Users\\raghu\\Downloads\\Fake Product Blockchain Project\\Fake Product Blockchain Project\\contracts\\product.sol",
  "compiler": {
    "name": "solc",
    "version": "0.8.12+commit.f00d7308.Emscripten.clang"
  },
  "schemaVersion": "3.4.16",
  "updatedAt": "2024-03-29T06:01:32.950Z",
  "devdoc": {
    "kind": "dev",
    "methods": {},
    "version": 1
  },
  "userdoc": {
    "kind": "user",
    "methods": {},
    "version": 1
  }
}